:100000000C942A000C943F000C943F000C943F0089
:100010000C943F000C943F000C943F000C943F0064
:100020000C943F000C943F000C943F000C943F0054
:100030000C943F000C943F000C943F000C943F0044
:100040000C943F000C943F000C943F000C943F0034
:100050000C943F0011241FBECFE5D8E0DEBFCDBF1A
:1000600011E0A0E6B0E0E6E8FDE202C005900D92E6
:10007000AC37B107D9F70E9431140C94C1160C9417
:100080000000EF92FF920F931F937B018C0120E001
:1000900030E040E05FE40E944D0488238CF0C8010A
:1000A000B70120E030E040E05FE40E94B9010E9427
:1000B0000B059B01AC01205030404040504806C029
:1000C000C801B7010E940B059B01AC01B901CA012F
:1000D0001F910F91FF90EF900895A0E0B0E0E3E74B
:1000E000F0E00C948A16DC012B01FA019C9192300D
:1000F00008F439C1EB018881823008F433C19430AF
:1001000069F4843009F02FC111969C91119789816F
:10011000981709F428C1A4E6B0E025C1843009F499
:1001200021C18230A9F4923009F01DC19A01AD01BC
:1001300088E0EA010990AE01E90109929E0181502F
:10014000C1F7E201898111969C918923818308C1BD
:10015000923009F407C112962D903C901397EB0151
:100160008A819B811496AD90BD90CD90DC901797BD
:10017000EC80FD800E811F819101281B390BB90194
:1001800037FF04C066277727621B730B6032710547
:100190000CF061C0121613066CF537014801062EEB
:1001A00004C096948794779467940A94D2F721E0D8
:1001B00030E040E050E004C0220F331F441F551FC1
:1001C0006A95D2F721503040404050402E213F21C7
:1001D00040235123211531054105510521F021E02E
:1001E00030E040E050E079018A01E628F72808294C
:1001F00019293CC0232BD1F1260E371E35014601AB
:10020000062E04C096948794779467940A94D2F744
:1002100021E030E040E050E004C0220F331F441FD3
:10022000551F6A95D2F721503040404050402A2156
:100230003B214C215D21211531054105510521F05E
:1002400021E030E040E050E059016A01A628B728DB
:10025000C828D9280BC0821593052CF01C01AA24AC
:10026000BB24650103C0EE24FF24870111969C91F5
:10027000D20111968C91981709F445C0992339F051
:10028000A80197012A193B094C095D0906C0A6017E
:1002900095012E193F09400B510B57FD08C01182E3
:1002A0003382228224833583468357831DC081E0B5
:1002B00081833382228288279927DC01821B930B5A
:1002C000A40BB50B84839583A683B7830DC0220F3F
:1002D000331F441F551F24833583468357838281F0
:1002E000938101979383828324813581468157814D
:1002F000DA01C9010197A109B1098F5F9F4FAF4F83
:10030000BF4328F30BC0918333822282EA0CFB1C8B
:100310000C1D1D1DE482F5820683178383E0808314
:10032000248135814681578157FF1AC0C901AA2708
:1003300097FDA095BA2F81709070A070B0705695FF
:10034000479537952795822B932BA42BB52B848328
:100350009583A683B7838281938101969383828359
:10036000DF0101C0D201CD01CDB7DEB7E2E10C94CF
:10037000A616A0E2B0E0EFEBF1E00C9496166983CC
:100380007A838B839C832D833E834F835887E9E058
:10039000EE2EF12CEC0EFD1ECE010196B7010E944F
:1003A000FC068E010F5E1F4FCE010596B8010E941C
:1003B000FC068A8991E089278A8BC701B801AE01C2
:1003C000475E5F4F0E946D000E942706A096E6E000
:1003D0000C94B216A0E2B0E0E0EFF1E00C949616B7
:1003E00069837A838B839C832D833E834F835887D5
:1003F000F9E0EF2EF12CEC0EFD1ECE010196B701B7
:100400000E94FC068E010F5E1F4FCE010596B801BB
:100410000E94FC06C701B801AE01475E5F4F0E9413
:100420006D000E942706A096E6E00C94B216A0E2AA
:10043000B0E0EDE1F2E00C948A1669837A838B8355
:100440009C832D833E834F835887CE010196BE0146
:10045000675F7F4F0E94FC06CE010596BE016F5E6E
:100460007F4F0E94FC069985923088F089898230FE
:10047000C8F0943019F4823051F404C0843029F467
:10048000923081F484E690E0C6C0923049F420E0D6
:100490009A858A89981321E02A87CE010996BBC0E4
:1004A000823049F420E09A858A89981321E02A8BCA
:1004B000CE014196B0C02D843E844F8458886D880B
:1004C0007E888F88988CEE24FF248701AA24BB2481
:1004D000650140E050E060E070E0E0E0F0E0C10184
:1004E00081709070892BE9F0E60CF71C081D191D2E
:1004F0009A01AB012A0D3B1D4C1D5D1D80E090E073
:10050000A0E0B0E0E614F7040805190520F481E046
:1005100090E0A0E0B0E0BA01A901480F591F6A1F9E
:100520007B1FAA0CBB1CCC1CDD1C97FE08C081E005
:1005300090E0A0E0B0E0A82AB92ACA2ADB2A3196C6
:10054000E032F10549F0660C771C881C991C569422
:10055000479437942794C3CFFA85EA892B893C893D
:100560008B859C85280F391F2E5F3F4F17C0CA010E
:1005700081709070892B61F016950795F794E79438
:1005800080E090E0A0E0B0E8E82AF92A0A2B1B2BD3
:1005900076956795579547952F5F3F4F77FDE7CF46
:1005A0000CC0440F551F661F771F17FD4160EE0CEE
:1005B000FF1C001F111F21503040403090E05907B0
:1005C00090E0690790E4790760F32B8F3C8FDB01A3
:1005D000CA018F779070A070B07080349105A1052A
:1005E000B10561F447FD0AC0E114F10401051105EC
:1005F00029F0405C5F4F6F4F7F4F40781A8EFE1797
:1006000011F081E08A8F4D8F5E8F6F8F78A383E02A
:10061000898FCE0149960E942706A096E2E10C94AC
:10062000A616A8E1B0E0E7E1F3E00C949216698326
:100630007A838B839C832D833E834F835887B9E0D5
:10064000EB2EF12CEC0EFD1ECE010196B7010E949F
:10065000FC068E010F5E1F4FCE010596B8010E9469
:10066000FC062985223008F47EC03989323010F426
:10067000B8017CC08A859A8989278A87243011F03D
:10068000223031F4231709F06EC064E670E06EC0CA
:10069000343039F41D861E861F86188A1C861B86F8
:1006A00004C0323021F484E08987B7015FC02B8514
:1006B0003C858B899C89281B390B3C872B87ED84D3
:1006C000FE840F851889AD88BE88CF88D88CEA143F
:1006D000FB040C051D0540F4EE0CFF1C001F111F50
:1006E000215030403C872B8720E030E040E050E054
:1006F00080E090E0A0E0B0E460E070E0EA14FB0489
:100700000C051D0540F0282B392B4A2B5B2BEA18D2
:10071000FB080C091D09B695A79597958795EE0CD2
:10072000FF1C001F111F6F5F7F4F6F31710531F785
:10073000DA01C9018F779070A070B0708034910594
:10074000A105B10561F427FD0AC0E114F10401051A
:10075000110529F0205C3F4F4F4F5F4F20782D87C8
:100760003E874F87588BBE01675F7F4FCB010E944A
:1007700027066896EAE00C94AE16A8E1B0E0E3EC38
:10078000F3E00C94961669837A838B839C832D8384
:100790003E834F83588789E0E82EF12CEC0EFD1E36
:1007A000CE010196B7010E94FC068E010F5E1F4F1D
:1007B000CE010596B8010E94FC068985823040F082
:1007C0008989823028F0C701B8010E94740701C0EE
:1007D00081E06896E6E00C94B216A8E1B0E0E3EFA1
:1007E000F3E00C94961669837A838B839C832D8324
:1007F0003E834F83588789E0E82EF12CEC0EFD1ED6
:10080000CE010196B7010E94FC068E010F5E1F4FBC
:10081000CE010596B8010E94FC068985823040F021
:100820008989823028F0C701B8010E94740701C08D
:1008300081E06896E6E00C94B216A8E1B0E0E3E24D
:10084000F4E00C94961669837A838B839C832D83C2
:100850003E834F83588789E0E82EF12CEC0EFD1E75
:10086000CE010196B7010E94FC068E010F5E1F4F5C
:10087000CE010596B8010E94FC068985823040F0C1
:100880008989823028F0C701B8010E94740701C02D
:100890008FEF6896E6E00C94B216A8E1B0E0E3E5CD
:1008A000F4E00C94961669837A838B839C832D8362
:1008B0003E834F83588789E0E82EF12CEC0EFD1E15
:1008C000CE010196B7010E94FC068E010F5E1F4FFC
:1008D000CE010596B8010E94FC068985823040F061
:1008E0008989823028F0C701B8010E94740701C0CD
:1008F0008FEF6896E6E00C94B216A8E1B0E0E3E86A
:10090000F4E00C94961669837A838B839C832D8301
:100910003E834F83588789E0E82EF12CEC0EFD1EB4
:10092000CE010196B7010E94FC068E010F5E1F4F9B
:10093000CE010596B8010E94FC068985823040F000
:100940008989823028F0C701B8010E94740701C06C
:1009500081E06896E6E00C94B216A8E0B0E0E3EB24
:10096000F4E00C9493169B01AC0183E08983DA01D7
:10097000C9018827B7FD83959927AA27BB27B82ED9
:10098000211531054105510519F482E089833AC0EA
:100990008823A9F0203080E0380780E0480780E80D
:1009A000580729F460E070E080E09FEC30C0EE244E
:1009B000FF248701E21AF30A040B150B02C0790128
:1009C0008A018EE1C82ED12CDC82CB82ED82FE82A0
:1009D0000F831887C801B7010E94D8050197181620
:1009E000190684F4082E04C0EE0CFF1C001F111F12
:1009F0000A94D2F7ED82FE820F831887C81AD90AAB
:100A0000DC82CB82BA82CE0101960E94270628960C
:100A1000E9E00C94AF16ACE0B0E0E1E1F5E00C9455
:100A20009A1669837A838B839C83CE010196BE01DB
:100A30006B5F7F4F0E94FC068D81823061F18230B6
:100A400050F1843021F48E81882351F12EC02F8102
:100A5000388537FD20C06E812F3131051CF06623AB
:100A6000F9F023C08EE190E0821B930B29853A8533
:100A70004B855C8504C056954795379527958A9593
:100A8000D2F76623B1F050954095309521953F4FB0
:100A90004F4F5F4F0EC020E030E040E050E009C013
:100AA0002FEF3FEF4FEF5FE704C020E030E040E082
:100AB00050E8B901CA012C96E2E00C94B616A8E001
:100AC000B0E0E5E6F5E00C9492167B018C0161152F
:100AD00071058105910519F482E0898360C083E086
:100AE00089838EE1C82ED12CDC82CB82ED82FE82FE
:100AF0000F831887C801B7010E94D805FC01319700
:100B0000F7FF3BC0222733272E1B3F0B57016801FD
:100B1000022E04C0D694C794B794A7940A94D2F72F
:100B200040E050E060E070E081E090E0A0E0B0E004
:100B300004C0880F991FAA1FBB1F2A95D2F70197DF
:100B4000A109B1098E219F21A023B1230097A105FE
:100B5000B10521F041E050E060E070E04A295B29F6
:100B60006C297D294D835E836F8378878EE190E0C9
:100B70008E1B9F0B9C838B8312C0309781F00E2EAF
:100B800004C0EE0CFF1C001F111F0A94D2F7ED8267
:100B9000FE820F831887CE1ADF0ADC82CB821A828C
:100BA000CE0101960E9427062896EAE00C94AE1624
:100BB000EF92FF920F931F937B018C0180E0E81668
:100BC00080E0F80681E0080780E0180788F48FEFDE
:100BD000E816F1040105110531F028F088E090E0F5
:100BE000A0E0B0E017C080E090E0A0E0B0E012C06C
:100BF00080E0E81680E0F80680E0080781E018074A
:100C000028F088E190E0A0E0B0E004C080E190E04E
:100C1000A0E0B0E020E230E040E050E0281B390BDB
:100C20004A0B5B0B04C016950795F794E7948A95D9
:100C3000D2F7F701E459FF4F8081281B31094109A0
:100C40005109C9011F910F91FF90EF900895DF9214
:100C5000EF92FF920F931F93FC01E480F5800681D1
:100C60001781D1808081823048F480E090E0A0E15B
:100C7000B0E0E82AF92A0A2B1B2BA5C0843009F41E
:100C80009FC0823021F4EE24FF24870105C0E114C7
:100C9000F1040105110519F4E0E0F0E096C062816D
:100CA00073819FEF623879070CF05BC022E83FEF59
:100CB000261B370B2A3131052CF020E030E040E0D4
:100CC00050E02AC0B801A701022E04C076956795AE
:100CD000579547950A94D2F781E090E0A0E0B0E004
:100CE00004C0880F991FAA1FBB1F2A95D2F701972E
:100CF000A109B1098E219F21A023B1230097A1054D
:100D0000B10521F081E090E0A0E0B0E09A01AB01F4
:100D1000282B392B4A2B5B2BDA01C9018F77907076
:100D2000A070B07080349105A105B10539F427FF9A
:100D300009C0205C3F4F4F4F5F4F04C0215C3F4FC5
:100D40004F4F5F4FE0E0F0E02030A0E03A07A0E036
:100D50004A07A0E45A0710F0E1E0F0E079018A01C7
:100D600027C06038710564F5FB01E158FF4FD801D9
:100D7000C7018F779070A070B07080349105A10585
:100D8000B10539F4E7FE0DC080E490E0A0E0B0E0EA
:100D900004C08FE390E0A0E0B0E0E80EF91E0A1F67
:100DA0001B1F17FF05C016950795F794E79431961A
:100DB00087E016950795F794E7948A95D1F705C0D3
:100DC000EE24FF248701EFEFF0E06E2F6795662792
:100DD0006795902F9F77D794DD24D7948E2F869593
:100DE000492F462B582F5D29B701CA011F910F913A
:100DF000FF90EF90DF900895FC01DB01408151816D
:100E00002281622F6F7770E0221F2227221F938199
:100E1000892F880F822B282F30E0991F9927991F3F
:100E200011969C93119721153105A9F5411551058E
:100E30006105710511F482E037C082E89FEF1396D7
:100E40009C938E9312979A01AB0167E0220F331F98
:100E5000441F551F6A95D1F783E08C930DC0220F74
:100E6000331F441F551F12968D919C911397019724
:100E700013969C938E931297203080E0380780E081
:100E8000480780E4580758F314962D933D934D93EB
:100E90005C93179708952F3F310579F4411551055B
:100EA0006105710519F484E08C93089564FF03C013
:100EB00081E08C9312C01C9210C02F5730401396C3
:100EC0003C932E93129783E08C9387E0440F551F39
:100ED000661F771F8A95D1F7706414964D935D93C2
:100EE0006D937C93179708951F93DC01FB019C91F0
:100EF000923008F447C08081823008F443C09430B7
:100F000051F411961C91843099F58181682F70E01D
:100F1000611B71093FC0843021F0923031F482307E
:100F2000B9F18181882389F12DC011961C91119707
:100F30008230F1F081811817D9F412962D913C91ED
:100F40001397828193818217930794F028173907AA
:100F5000BCF014968D919D910D90BC91A02D248193
:100F6000358146815781281739074A075B0718F4EE
:100F7000112341F00AC082179307A407B50740F474
:100F8000112319F061E070E005C06FEF7FEF02C040
:100F900060E070E0CB011F910895DF93CF93CDB750
:100FA000DEB72D970FB6F894DEBF0FBECDBF898395
:100FB0006A834B838981843008F009C18A81883033
:100FC00008F005C18B81823008F001C18981282F8A
:100FD00030E03D872C878C859D858130910509F413
:100FE0004FC02C853D85223031052CF48C859D85A4
:100FF000009771F0ECC02C853D852230310509F455
:1010000077C08C859D858330910509F4A9C0DFC028
:101010008B81282F30E03B872A878A859B85009724
:1010200031F02A853B8521303105B1F0D0C0AAE3EB
:10103000B0E0EAE3F0E08081482F8A81282F30E099
:1010400081E090E0022E02C0880F991F0A94E2F717
:10105000809584238C93BBC0AAE3B0E0EAE3F0E080
:101060008081482F8A81282F30E081E090E0022E95
:1010700002C0880F991F0A94E2F7842B8C93A7C0B3
:101080008B81282F30E039872887888599850097BC
:1010900031F02885398521303105B1F098C0A7E3BA
:1010A000B0E0E7E3F0E08081482F8A81282F30E02C
:1010B00081E090E0022E02C0880F991F0A94E2F7A7
:1010C000809584238C9383C0A7E3B0E0E7E3F0E04E
:1010D0008081482F8A81282F30E081E090E0022E25
:1010E00002C0880F991F0A94E2F7842B8C936FC07B
:1010F0008B81282F30E03F832E838E819F81009744
:1011000031F02E813F8121303105B1F060C0A4E380
:10111000B0E0E4E3F0E08081482F8A81282F30E0BE
:1011200081E090E0022E02C0880F991F0A94E2F736
:10113000809584238C934BC0A4E3B0E0E4E3F0E01B
:101140008081482F8A81282F30E081E090E0022EB4
:1011500002C0880F991F0A94E2F7842B8C9337C042
:101160008B81282F30E03D832C838C819D810097DB
:1011700031F02C813D8121303105B1F028C0A1E34F
:10118000B0E0E1E3F0E08081482F8A81282F30E051
:1011900081E090E0022E02C0880F991F0A94E2F7C6
:1011A000809584238C9313C0A1E3B0E0E1E3F0E0E9
:1011B0008081482F8A81282F30E081E090E0022E44
:1011C00002C0880F991F0A94E2F7842B8C932D9606
:1011D0000FB6F894DEBF0FBECDBFCF91DF9108955B
:1011E000DF93CF93CDB7DEB72D970FB6F894DEBF60
:1011F0000FBECDBF89836A834B838981843008F019
:1012000009C18A81883008F005C18B81823008F0DD
:1012100001C18981282F30E03D872C878C859D85F1
:101220008130910509F44FC02C853D852230310570
:101230002CF48C859D85009771F0ECC02C853D8544
:101240002230310509F477C08C859D858330910566
:1012500009F4A9C0DFC08B81282F30E03B872A87A3
:101260008A859B85009731F02A853B8521303105A1
:10127000B1F0D0C0ABE3B0E0EBE3F0E08081482F09
:101280008A81282F30E081E090E0022E02C0880F92
:10129000991F0A94E2F7809584238C93BBC0ABE33B
:1012A000B0E0EBE3F0E08081482F8A81282F30E026
:1012B00081E090E0022E02C0880F991F0A94E2F7A5
:1012C000842B8C93A7C08B81282F30E03987288707
:1012D00088859985009731F0288539852130310539
:1012E000B1F098C0A8E3B0E0E8E3F0E08081482FD7
:1012F0008A81282F30E081E090E0022E02C0880F22
:10130000991F0A94E2F7809584238C9383C0A8E305
:10131000B0E0E8E3F0E08081482F8A81282F30E0B8
:1013200081E090E0022E02C0880F991F0A94E2F734
:10133000842B8C936FC08B81282F30E03F832E83CA
:101340008E819F81009731F02E813F8121303105C0
:10135000B1F060C0A5E3B0E0E5E3F0E08081482FA4
:101360008A81282F30E081E090E0022E02C0880FB1
:10137000991F0A94E2F7809584238C934BC0A5E3D0
:10138000B0E0E5E3F0E08081482F8A81282F30E04B
:1013900081E090E0022E02C0880F991F0A94E2F7C4
:1013A000842B8C9337C08B81282F30E03D832C8396
:1013B0008C819D81009731F02C813D812130310558
:1013C000B1F028C0A2E3B0E0E2E3F0E08081482F72
:1013D0008A81282F30E081E090E0022E02C0880F41
:1013E000991F0A94E2F7809584238C9313C0A2E39B
:1013F000B0E0E2E3F0E08081482F8A81282F30E0DE
:1014000081E090E0022E02C0880F991F0A94E2F753
:10141000842B8C932D960FB6F894DEBF0FBECDBFF4
:10142000CF91DF910895DF93CF9300D000D000D00B
:10143000CDB7DEB789836A838981843008F070C0B4
:101440008A81883008F06CC08981282F30E03D8384
:101450002C834C815D814130510549F18C819D8106
:101460008230910534F42C813D812115310561F0E4
:1014700057C04C815D814230510561F18C819D8165
:1014800083309105D1F14CC0E9E3F0E08081282F51
:1014900030E08A81882F90E0A90102C055954795D8
:1014A0008A95E2F7CA01582F51705B833AC0E6E390
:1014B000F0E08081282F30E08A81882F90E0A90118
:1014C00002C0559547958A95E2F7CA01582F517089
:1014D0005B8327C0E3E3F0E08081282F30E08A813E
:1014E000882F90E0A90102C0559547958A95E2F7AB
:1014F000CA01582F51705B8314C0E0E3F0E0808193
:10150000282F30E08A81882F90E0A90102C05595EC
:1015100047958A95E2F7CA01582F51705B8301C045
:1015200002C08B818E838E8126960FB6F894DEBF23
:101530000FBECDBFCF91DF910895DF93CF9300D041
:1015400000D0CDB7DEB789836A838981843008F003
:1015500072C08A81883008F06EC08981282F30E0FF
:101560003C832B838B819C818130910549F12B81B8
:101570003C81223031052CF48B819C81009761F0F5
:101580005AC02B813C812230310571F18B819C81C5
:1015900083309105E9F14FC0ABE3B0E0EBE3F0E05D
:1015A0008081482F8A81282F30E081E090E0022E50
:1015B00002C0880F991F0A94E2F784278C933BC0DE
:1015C000A8E3B0E0E8E3F0E08081482F8A81282F8B
:1015D00030E081E090E0022E02C0880F991F0A944B
:1015E000E2F784278C9327C0A5E3B0E0E5E3F0E0C1
:1015F0008081482F8A81282F30E081E090E0022E00
:1016000002C0880F991F0A94E2F784278C9313C0B5
:10161000A2E3B0E0E2E3F0E08081482F8A81282F46
:1016200030E081E090E0022E02C0880F991F0A94FA
:10163000E2F784278C930F900F900F900F90CF912B
:10164000DF910895DF93CF9300D000D0CDB7DEB700
:1016500089836A838981843008F072C08A818830E6
:1016600008F06EC08981282F30E03C832B838B816A
:101670009C818130910549F12B813C8122303105DB
:101680002CF48B819C81009761F05AC02B813C81A6
:101690002230310571F18B819C8183309105E9F114
:1016A0004FC0ABE3B0E0EBE3F0E08081482F8A81EC
:1016B000282F30E081E090E0022E02C0880F991FB1
:1016C0000A94E2F7842B8C933BC0A8E3B0E0E8E3F4
:1016D000F0E08081482F8A81282F30E081E090E07F
:1016E000022E02C0880F991F0A94E2F7842B8C9374
:1016F00027C0A5E3B0E0E5E3F0E08081482F8A81D0
:10170000282F30E081E090E0022E02C0880F991F60
:101710000A94E2F7842B8C9313C0A2E3B0E0E2E3D7
:10172000F0E08081482F8A81282F30E081E090E02E
:10173000022E02C0880F991F0A94E2F7842B8C9323
:101740000F900F900F900F90CF91DF910895DF933E
:10175000CF93CDB7DEB72C970FB6F894DEBF0FBE90
:10176000CDBF89836A838981843008F083C08A81F0
:10177000823008F07FC08981282F30E03C872B879A
:101780008B859C858130910571F12B853C852230BC
:1017900031052CF48B859C85009769F06BC02B85F7
:1017A0003C8522303105B9F18B859C8583309105CC
:1017B00009F449C05FC08A81282F30E03A87298721
:1017C00089859A85009731F029853A852130310540
:1017D00029F050C0EAE3F0E010824CC0EAE3F0E008
:1017E0008FEF808347C08A81282F30E038872F838E
:1017F0008F819885009731F02F8138852130310510
:1018000029F038C0E7E3F0E0108234C0E7E3F0E00D
:101810008FEF80832FC08A81282F30E03E832D8375
:101820008D819E81009731F02D813E8121303105DF
:1018300029F020C0E4E3F0E010821CC0E4E3F0E013
:101840008FEF808317C08A81282F30E03C832B8361
:101850008B819C81009731F02B813C8121303105B7
:1018600029F008C0E1E3F0E0108204C0E1E3F0E019
:101870008FEF80832C960FB6F894DEBF0FBECDBFDE
:10188000CF91DF910895DF93CF9300D000D0CDB7F3
:10189000DEB789836A838981843090F58981282F16
:1018A00030E03C832B838B819C8181309105D1F08A
:1018B0002B813C81223031052CF48B819C81009757
:1018C00061F01EC02B813C812230310581F08B817B
:1018D0009C818330910581F013C0EBE3F0E08A81B5
:1018E00080830EC0E8E3F0E08A81808309C0E5E3ED
:1018F000F0E08A81808304C0E2E3F0E08A818083A3
:101900000F900F900F900F90CF91DF910895DF937C
:10191000CF9300D000D00F92CDB7DEB789837B8301
:101920006A838981843008F03EC08A819B81009758
:10193000D1F18981282F30E03D832C838C819D81DA
:1019400081309105E1F02C813D81223031052CF46C
:101950008C819D81009761F026C02C813D812230D1
:101960003105A1F08C819D8183309105B1F01BC0C0
:10197000E9E3F0E08081EA81FB81808314C0E6E343
:10198000F0E08081EA81FB8180830DC0E3E3F0E039
:101990008081EA81FB81808306C0E0E3F0E0808102
:1019A000EA81FB8180830F900F900F900F900F9032
:1019B000CF91DF910895DF93CF9300D00F92CDB7F1
:1019C000DEB789838981843008F03EC08981282F61
:1019D00030E03B832A838A819B8181309105E9F045
:1019E0002A813B81223031052CF48A819B8100972A
:1019F00061F02AC02A813B8122303105B1F08A8111
:101A00009B8183309105C9F01FC0ABE3B0E0EBE3ED
:101A1000F0E0808180958C9317C0A8E3B0E0E8E304
:101A2000F0E0808180958C930FC0A5E3B0E0E5E302
:101A3000F0E0808180958C9307C0A2E3B0E0E2E300
:101A4000F0E0808180958C930F900F900F90CF9154
:101A5000DF910895DF93CF9300D00F92CDB7DEB71B
:101A600089838981843090F58981282F30E03B83F8
:101A70002A838A819B8181309105D1F02A813B8123
:101A8000223031052CF48A819B81009761F01EC0C1
:101A90002A813B812230310581F08A819B8183300C
:101AA000910581F013C0EBE3F0E08FEF80830EC06F
:101AB000E8E3F0E08FEF808309C0E5E3F0E08FEF2B
:101AC000808304C0E2E3F0E08FEF80830F900F90FB
:101AD0000F90CF91DF9108950F931F93DF93CF93D2
:101AE000CDB7DEB7CC54D0400FB6F894DEBF0FBEF2
:101AF000CDBF80E064E041E00E94CD0780E065E07A
:101B000041E00E94CD0780E066E041E00E94CD0701
:101B100080E067E041E00E94CD0781E061E041E0C4
:101B20000E94CD0781E062E041E00E94CD0781E0A4
:101B300063E041E00E94CD07FE01E75BFF4F80E0DC
:101B400090E0ACE0B2E480839183A283B3838E0102
:101B50000B5B1F4FFE01E75BFF4F6081718182814C
:101B6000938120E030E04AE755E40E941702DC014F
:101B7000CB01F80180839183A283B383FE01EB5BE9
:101B8000FF4F608171818281938120E030E040E8E5
:101B90005FE30E947D04882344F4FE01ED5BFF4F68
:101BA00081E090E09183808364C0FE01EB5BFF4F96
:101BB000608171818281938120E03FEF4FE757E49C
:101BC0000E941D0418160CF043C0FE01E75BFF4F96
:101BD000608171818281938120E030E040E251E4B4
:101BE0000E941702DC01CB018E010D5B1F4FBC016F
:101BF000CD010E944100DC01CB01F801918380837B
:101C00001FC0FE01EF5BFF4F80E991E0918380836D
:101C1000FE01EF5BFF4F808191810197F1F7FE019B
:101C2000EF5BFF4F91838083DE01AD5BBF4FFE0111
:101C3000ED5BFF4F80819181019711969C938E936C
:101C4000FE01ED5BFF4F808191810097D1F624C0AA
:101C50008E010D5B1F4FFE01EB5BFF4F60817181B9
:101C6000828193810E944100DC01CB01F8019183C4
:101C70008083FE01ED5BFF4F80819181FE01FF9625
:101C800091838083FE01FF96808191810197F1F716
:101C9000FE01FF969183808381E061E040E00E9435
:101CA000F00881E062E040E00E94F00882E00E94DB
:101CB00087120E94B71288E20E94811080E090E0B3
:101CC000A4E3B2E48BAF9CAFADAFBEAF6BAD7CAD68
:101CD0008DAD9EAD2BEA3AEA4AEA50E40E94170223
:101CE000DC01CB018FAB98AFA9AFBAAF6FA978ADCC
:101CF00089AD9AAD20E030E040E85FE30E947D04CA
:101D000088231CF481E08EAB91C06FA978AD89ADBA
:101D10009AAD20E030E04FE753E40E941D0418160E
:101D20000CF07BC06BAD7CAD8DAD9EAD20E030E0A6
:101D30004AE754E40E941103DC01CB018AAB9BAB60
:101D4000ACABBDAB6AA97BA98CA99DA920E030E012
:101D50004AE755E40E941702DC01CB018EA79FA73A
:101D6000A8ABB9AB6EA57FA588A999A920E030E002
:101D700040E85FE30E947D0488232CF481E090E03A
:101D80009DA78CA73FC06EA57FA588A999A920E033
:101D90003FEF4FE757E40E941D0418164CF56AA95F
:101DA0007BA98CA99DA920E030E040E251E40E948B
:101DB0001702DC01CB01BC01CD010E944100DC0116
:101DC000CB019DA78CA70FC080E991E09BA78AA7B4
:101DD0008AA59BA50197F1F79BA78AA78CA59DA52E
:101DE00001979DA78CA78CA59DA5009769F724C096
:101DF0006EA57FA588A999A90E944100DC01CB01AD
:101E00009DA78CA78CA59DA599A788A788A599A50E
:101E10000197F1F799A788A70FC06FA978AD89AD91
:101E20009AAD0E944100DC01CB018EAB8EA98FA33D
:101E30008FA18A95F1F78FA38CE00E94811080E03A
:101E400090E0A4E3B2E48BA39CA3ADA3BEA36BA1DB
:101E50007CA18DA19EA12BEA3AEA4AEA50E40E94B5
:101E60001702DC01CB018F8F98A3A9A3BAA36F8DB2
:101E700078A189A19AA120E030E040E85FE30E94C8
:101E80007D0488231CF481E08E8F91C06F8D78A132
:101E900089A19AA120E030E04FE753E40E941D049D
:101EA00018160CF07BC06BA17CA18DA19EA120E037
:101EB00030E04AE754E40E941103DC01CB018A8F31
:101EC0009B8FAC8FBD8F6A8D7B8D8C8D9D8D20E01F
:101ED00030E04AE755E40E941702DC01CB018E8B0B
:101EE0009F8BA88FB98F6E897F89888D998D20E00F
:101EF00030E040E85FE30E947D0488232CF481E019
:101F000090E09D8B8C8B3FC06E897F89888D998DE9
:101F100020E03FEF4FE757E40E941D0418164CF5F0
:101F20006A8D7B8D8C8D9D8D20E030E040E251E408
:101F30000E941702DC01CB01BC01CD010E944100CF
:101F4000DC01CB019D8B8C8B0FC080E991E09B8BDA
:101F50008A8B8A899B890197F1F79B8B8A8B8C8965
:101F60009D8901979D8B8C8B8C899D89009769F742
:101F700024C06E897F89888D998D0E944100DC0183
:101F8000CB019D8B8C8B8C899D89998B888B8889C3
:101F900099890197F1F7998B888B0FC06F8D78A184
:101FA00089A19AA10E944100DC01CB018E8F8E8D08
:101FB0008F878F858A95F1F78F8781E00E94811046
:101FC00080E090E0A0E0B0E48B879C87AD87BE877F
:101FD0006B857C858D859E8520E030E04AE755E461
:101FE0000E941702DC01CB018F839887A987BA87EB
:101FF0006F81788589859A8520E030E040E85FE34D
:102000000E947D0488232CF481E090E09E838D83E0
:102010003FC06F81788589859A8520E03FEF4FE743
:1020200057E40E941D0418164CF56B857C858D8540
:102030009E8520E030E040E251E40E941702DC017E
:10204000CB01BC01CD010E944100DC01CB019E838C
:102050008D830FC080E991E09C838B838B819C8171
:102060000197F1F79C838B838D819E8101979E83DD
:102070008D838D819E81009769F714C06F8178856B
:1020800089859A850E944100DC01CB019E838D8366
:102090008D819E819A83898389819A810197F1F745
:1020A0009A83898386E00E948110C45BDF4F0FB65C
:1020B000F894DEBF0FBECDBFCF91DF911F910F917E
:1020C0000895DF93CF930F92CDB7DEB7898381E078
:1020D00061E041E00E94F00881E062E040E00E949F
:1020E000F008898182958F700E9487120E94B71232
:1020F00089810E9487120E94B7120F90CF91DF91C1
:102100000895DF93CF930F92CDB7DEB7898381E037
:1021100061E040E00E94F00881E062E040E00E945F
:10212000F008898182958F700E9487120E94B712F1
:1021300089810E9487120E94B7120F90CF91DF9180
:102140000895DF93CF9300D00F92CDB7DEB79B8376
:102150008A838A819B810097D9F019820EC0898178
:10216000282F30E08A819B81FC01E20FF31F8081E0
:102170000E94611089818F5F89838981282F30E0D7
:102180008A819B81FC01E20FF31F8081882339F74C
:102190000F900F900F90CF91DF9108950F931F93A1
:1021A000DF93CF93CDB7DEB765970FB6F894DEBF58
:1021B0000FBECDBF6A8B7B8B8C8B9D8B8A899B8955
:1021C000AC89BD890097A105B10521F480E30E9487
:1021D000611051C0198230C08981082F112707FD75
:1021E00010958A899B89AC89BD892AE030E040E05E
:1021F00050E0BC01CD010E946816DC01CB01282F04
:10220000205DCE010296FC01E00FF11F2083898141
:102210008F5F89838A899B89AC89BD892AE030E0F8
:1022200040E050E0BC01CD010E946816DA01C9010E
:102230008A8B9B8BAC8BBD8B8A899B89AC89BD8932
:102240000097A105B10541F689818150898310C0AD
:102250008981282F332727FD3095CE010296FC0176
:10226000E20FF31F80810E94611089818150898370
:10227000898188236CF765960FB6F894DEBF0FBE90
:10228000CDBFCF91DF911F910F910895DF93CF9331
:1022900000D000D0CDB7DEB769837A838B839C836F
:1022A00089819A81AB81BC81BB2394F48DE20E9429
:1022B000611089819A81AB81BC81B095A095909580
:1022C00081959F4FAF4FBF4F89839A83AB83BC8368
:1022D00089819A81AB81BC81BC01CD010E94CE1065
:1022E0000F900F900F900F90CF91DF910895DF9393
:1022F000CF93CDB7DEB72C970FB6F894DEBF0FBEE5
:10230000CDBF69877A878B879C8769857A858B851E
:102310009C8520E030E040E050E00E947D0488236E
:1023200064F48DE20E94611089859A85AB85BC8535
:10233000B05889879A87AB87BC8769857A858B85F2
:102340009C850E944100DC01CB018D839E83AF837D
:10235000B8878D819E81AF81B885BC01CD010E9477
:10236000CE108EE20E9461106D817E818F819885F2
:102370000E945F059B01AC0169857A858B859C85F0
:102380000E94B901DC01CB0189839A83AB83BC83B2
:1023900069817A818B819C8120E030E048EC52E4B5
:1023A0000E941702DC01CB0189839A83AB83BC8333
:1023B00069817A818B819C810E944100DC01CB0183
:1023C000BC01CD010E94CE102C960FB6F894DEBF52
:1023D0000FBECDBFCF91DF910895DF93CF93CDB7DF
:1023E000DEB727970FB6F894DEBF0FBECDBF8B8345
:1023F0007D836C834E832F831A828B81882F90E09C
:10240000880F991F880F991F880F991F89838981C9
:102410008F77898389818064898389810E94811073
:102420001A820EC08A81282F30E08C819D81FC01A8
:10243000E20FF31F80810E9461108A818F5F8A837F
:102440008A81883078F38E816F810E9463128B813C
:102450000E94611027960FB6F894DEBF0FBECDBF65
:10246000CF91DF910895DF93CF93CDB7DEB781E0B1
:102470000E948110CF91DF910895DF93CF9300D018
:102480000F92CDB7DEB7898389818230B0F489811C
:10249000282F30E03B832A838A819B81009731F08B
:1024A0002A813B812130310529F007C088E10E9453
:1024B000811003C08CE10E9481100F900F900F904B
:1024C000CF91DF910895DF93CF9300D00F92CDB7D6
:1024D000DEB78A836B838A81882F90E000249695EB
:1024E00087950794969587950794982F802D982F18
:1024F0008B81890F898389818068898389810E9482
:1025000081100F900F900F90CF91DF910895DF937E
:10251000CF930F92CDB7DEB789838981982F9170C1
:1025200080E064E0492F0E94F00889818695982F09
:10253000917080E065E0492F0E94F00889818695BE
:102540008695982F917080E066E0492F0E94F008F0
:102550008981869586958695982F917080E067E0B1
:10256000492F0E94F0080F90CF91DF910895DF93DB
:10257000CF93CDB7DEB72E970FB6F894DEBF0FBE60
:10258000CDBF81E063E041E00E94F00880E090E090
:10259000A0E8BFE38B879C87AD87BE876B857C8572
:1025A0008D859E8520E030E04AE755E40E941702C1
:1025B000DC01CB018F839887A987BA876F817885E3
:1025C00089859A8520E030E040E85FE30E947D0441
:1025D00088232CF481E090E09E838D833FC06F813F
:1025E000788589859A8520E03FEF4FE757E40E9480
:1025F0001D0418164CF56B857C858D859E8520E025
:1026000030E040E251E40E941702DC01CB01BC0142
:10261000CD010E944100DC01CB019E838D830FC060
:1026200080E991E09C838B838B819C810197F1F7FA
:102630009C838B838D819E8101979E838D838D8169
:102640009E81009769F714C06F81788589859A8586
:102650000E944100DC01CB019E838D838D819E8190
:102660009A83898389819A810197F1F79A83898373
:1026700081E063E040E00E94F0082E960FB6F894E7
:10268000DEBF0FBECDBFCF91DF910895DF93CF9313
:10269000CDB7DEB729970FB6F894DEBF0FBECDBF1A
:1026A00084E08A8385E08B8386E08C8387E08D835A
:1026B00082E08E8383E08F8384E0888785E089874A
:1026C00019823BC08981282F30E0CE010296FC019F
:1026D000E20FF31F908181E0692F40E00E94CD0757
:1026E0008981282F30E0CE010296FC01E20FF31F12
:1026F000908181E0692F41E00E94F0088981282FB4
:1027000030E0CE010696FC01E20FF31F908183E0DA
:10271000692F41E00E94CD078981282F30E0CE014A
:102720000696FC01E20FF31F908183E0692F41E0E0
:102730000E94F00889818F5F89838981843010F23B
:1027400029960FB6F894DEBF0FBECDBFCF91DF91B3
:102750000895DF93CF93CDB7DEB72C970FB6F894DB
:10276000DEBF0FBECDBF84E08C8385E08D8386E025
:102770008E8387E08F8382E0888783E0898784E087
:102780008A8785E08B878FEF89831A825AC08A8176
:10279000282F30E0CE010896FC01E20FF31F908154
:1027A00083E0692F40E00E94F0081B8236C08B81D5
:1027B000282F30E0CE010496FC01E20FF31F908138
:1027C00081E0692F0E94130A882321F58B81482F0D
:1027D00050E08A81282F30E0CA01880F991F880FA6
:1027E000991F820F931FFC01E459FE4F808189835A
:1027F0008B81282F30E0CE010496FC01E20FF31FFD
:10280000908181E0692F0E94130A882389F38981CE
:102810008C871DC08B818F5F8B838B81843038F2D6
:102820008A81282F30E0CE010896FC01E20FF31FC9
:10283000908183E0692F41E00E94F0088A818F5FD8
:102840008A838A81843008F4A2CF89818C878C8521
:102850002C960FB6F894DEBF0FBECDBFCF91DF919F
:102860000895DF93CF93CDB7DEB70E946C0D0E9421
:1028700046130E943C14FDCFEF92FF920F931F93DB
:10288000DF93CF93CDB7DEB760970FB6F894DEBF76
:102890000FBECDBF80E090E0A0E0B0E08B879C87CA
:1028A000AD87BE8780E090E0A0E0B0E08F8398879E
:1028B000A987BA874AC08FEF8A8303C00E94A913F1
:1028C0008A838A818F3FD1F38A81882351F48A8158
:1028D000882F90E0A0E0B0E0BC01CD010E94CE10B6
:1028E00041C08A81882389F18A818A3070F56B859D
:1028F0007C858D859E8520E030E040E251E40E9499
:102900001702DC01CB017C018D018A81882F90E0C8
:10291000AA2797FDA095BA2FBC01CD010E94AD0456
:102920009B01AC01C801B7010E94EA01DC01CB01A7
:102930008B879C87AD87BE878A81882F90E0A0E037
:10294000B0E0BC01CD010E94CE106B857C858D85E9
:102950009E8520E030E040E050E00E94BD038823E7
:1029600009F4A9CF8FEF8A8303C00E94A9138A8339
:102970008A818F3FD1F36B857C858D859E8520E094
:1029800030E040E050E00E94ED038823E9F18A81C5
:102990008A3070F56B857C858D859E8520E030E0E2
:1029A00040E251E40E941702DC01CB017C018D0161
:1029B0008A81882F90E0AA2797FDA095BA2FBC01A5
:1029C000CD010E94AD049B01AC01C801B7010E947A
:1029D000EA01DC01CB018B879C87AD87BE878A81AA
:1029E000882F90E0A0E0B0E0BC01CD010E94CE10A5
:1029F0008FEF8A8303C00E94A9138A838A818F3F45
:102A0000D1F38A818A3018F280E20E9461108A81B3
:102A1000898389810E94611080E20E9461104AC00E
:102A20008FEF8A8303C00E94A9138A838A818F3F14
:102A3000D1F38A81882351F48A81882F90E0A0E025
:102A4000B0E0BC01CD010E94CE1041C08A81882334
:102A500089F18A818A3070F56F81788589859A85B8
:102A600020E030E040E251E40E941702DC01CB019B
:102A70007C018D018A81882F90E0AA2797FDA0957F
:102A8000BA2FBC01CD010E94AD049B01AC01C8016D
:102A9000B7010E94EA01DC01CB018F839887A987E7
:102AA000BA878A81882F90E0A0E0B0E0BC01CD0118
:102AB0000E94CE106F81788589859A8520E030E06C
:102AC00040E050E00E94BD03882309F4A9CF8FEFB6
:102AD0008A8303C00E94A9138A838A818F3FD1F31E
:102AE0006F81788589859A8520E030E040E050E06C
:102AF0000E94ED038823E9F18A818A3070F56F81A5
:102B0000788589859A8520E030E040E251E40E9492
:102B10001702DC01CB017C018D018A81882F90E0B6
:102B2000AA2797FDA095BA2FBC01CD010E94AD0444
:102B30009B01AC01C801B7010E94EA01DC01CB0195
:102B40008F839887A987BA878A81882F90E0A0E031
:102B5000B0E0BC01CD010E94CE108FEF8A8303C08C
:102B60000E94A9138A838A818F3FD1F38A818A3098
:102B700018F280E20E9461108DE30E94611080E2F1
:102B80000E9461108981282F30E0388B2F878F8534
:102B900098898B329105B1F02F8538892C32310517
:102BA00034F48F8598898A32910571F167C02F8539
:102BB00038892D323105B9F08F8598898F3291058A
:102BC000A1F15CC06B857C858D859E852F813885C4
:102BD00049855A850E94EA01DC01CB018B839C83E5
:102BE000AD83BE834BC06B857C858D859E852F8193
:102BF000388549855A850E94B901DC01CB018B8358
:102C00009C83AD83BE833AC06B857C858D859E8514
:102C10002F81388549855A850E941702DC01CB0136
:102C20008B839C83AD83BE8329C06F817885898522
:102C30009A8520E030E040E050E00E94ED038823D8
:102C4000C9F06B857C858D859E852F81388549856A
:102C50005A850E941103DC01CB018B839C83AD83D9
:102C6000BE838B819C81AD81BE81BC01CD010E9460
:102C7000771104C080E690E00E94A11089818F3214
:102C800061F06B817C818D819E810E940B05DC014E
:102C9000CB01BC01CD010E9446118FEF8A8303C096
:102CA0000E94A9138A838A818F3FD1F38A81833658
:102CB000A1F70E94331260960FB6F894DEBF0FBEE4
:102CC000CDBFCF91DF911F910F91FF90EF900895AD
:102CD000A1E21A2EAA1BBB1BFD010DC0AA1FBB1F20
:102CE000EE1FFF1FA217B307E407F50720F0A21B92
:102CF000B30BE40BF50B661F771F881F991F1A94FF
:102D000069F760957095809590959B01AC01BD0128
:102D1000CF0108952F923F924F925F926F927F92D0
:102D20008F929F92AF92BF92CF92DF92EF92FF92DB
:102D30000F931F93CF93DF93CDB7DEB7CA1BDB0B87
:102D40000FB6F894DEBF0FBECDBF09942A8839882C
:102D500048885F846E847D848C849B84AA84B98433
:102D6000C884DF80EE80FD800C811B81AA81B9813F
:102D7000CE0FD11D0FB6F894DEBF0FBECDBFED0153
:062D80000895F894FFCF56
:102D8600455252000000000000000000000102024F
:102D960003030303040404040404040405050505ED
:102DA60005050505050505050505050506060606C9
:102DB60006060606060606060606060606060606AD
:102DC6000606060606060606060606060707070799
:102DD600070707070707070707070707070707077D
:102DE600070707070707070707070707070707076D
:102DF600070707070707070707070707070707075D
:102E06000707070707070707070707070808080848
:102E1600080808080808080808080808080808082C
:102E2600080808080808080808080808080808081C
:102E3600080808080808080808080808080808080C
:102E460008080808080808080808080808080808FC
:102E560008080808080808080808080808080808EC
:102E660008080808080808080808080808080808DC
:102E760008080808080808080808080808080808CC
:102E86000808080808080808080808080708092F95
:0C2E96000405062A0102032D63003D2BF9
:00000001FF
