:100000000C942A000C94E8080C9415090C944209ED
:100010000C9447000C9447000C9447000C94470044
:100020000C9447000C9447000C9400070C942D0787
:100030000C9447000C9447000C9447000C94470024
:100040000C9447000C9447000C9447000C94470014
:100050000C94470011241FBECFE5D8E0DEBFCDBF12
:1000600010E0A0E6B0E0E6E7FDE202C005900D92E8
:10007000A837B107D9F710E0A8E7B0E001C01D929A
:10008000A538B107E1F70E94F1150C94B9160C944C
:100090000000EF92FF920F931F937B018C0120E0F1
:1000A00030E040E05FE40E94F50388238CF0C80153
:1000B000B70120E030E040E05FE40E94C1010E940F
:1000C00055049B01AC01205030404040504806C0D0
:1000D000C801B7010E9455049B01AC01B901CA01D6
:1000E0001F910F91FF90EF900895A0E0B0E0EBE733
:1000F000F0E00C948216DC012B01FA019C91923005
:1001000008F439C1EB018881823008F433C194309E
:1001100069F4843009F02FC111969C91119789815F
:10012000981709F428C1A0E6B0E025C1843009F48D
:1001300021C18230A9F4923009F01DC19A01AD01AC
:1001400088E0EA010990AE01E90109929E0181501F
:10015000C1F7E201898111969C918923818308C1AD
:10016000923009F407C112962D903C901397EB0141
:100170008A819B811496AD90BD90CD90DC901797AD
:10018000EC80FD800E811F819101281B390BB90184
:1001900037FF04C066277727621B730B6032710537
:1001A0000CF061C0121613066CF537014801062EDB
:1001B00004C096948794779467940A94D2F721E0C8
:1001C00030E040E050E004C0220F331F441F551FB1
:1001D0006A95D2F721503040404050402E213F21B7
:1001E00040235123211531054105510521F021E01E
:1001F00030E040E050E079018A01E628F72808293C
:1002000019293CC0232BD1F1260E371E350146019A
:10021000062E04C096948794779467940A94D2F734
:1002200021E030E040E050E004C0220F331F441FC3
:10023000551F6A95D2F721503040404050402A2146
:100240003B214C215D21211531054105510521F04E
:1002500021E030E040E050E059016A01A628B728CB
:10026000C828D9280BC0821593052CF01C01AA249C
:10027000BB24650103C0EE24FF24870111969C91E5
:10028000D20111968C91981709F445C0992339F041
:10029000A80197012A193B094C095D0906C0A6016E
:1002A00095012E193F09400B510B57FD08C01182D3
:1002B0003382228224833583468357831DC081E0A5
:1002C00081833382228288279927DC01821B930B4A
:1002D000A40BB50B84839583A683B7830DC0220F2F
:1002E000331F441F551F24833583468357838281E0
:1002F000938101979383828324813581468157813D
:10030000DA01C9010197A109B1098F5F9F4FAF4F72
:10031000BF4328F30BC0918333822282EA0CFB1C7B
:100320000C1D1D1DE482F5820683178383E0808304
:10033000248135814681578157FF1AC0C901AA27F8
:1003400097FDA095BA2F81709070A070B0705695EF
:10035000479537952795822B932BA42BB52B848318
:100360009583A683B7838281938101969383828349
:10037000DF0101C0D201CD01CDB7DEB7E2E10C94BF
:100380009E16A0E2B0E0E7ECF1E00C948E166983D3
:100390007A838B839C832D833E834F835887E9E048
:1003A000EE2EF12CEC0EFD1ECE010196B7010E943F
:1003B0007E058E010F5E1F4FCE010596B8010E948B
:1003C0007E058A8991E089278A8BC701B801AE0131
:1003D000475E5F4F0E9475000E94A904A096E6E068
:1003E0000C94AA16A0E2B0E0E8EFF1E00C948E16AF
:1003F00069837A838B839C832D833E834F835887C5
:10040000F9E0EF2EF12CEC0EFD1ECE010196B701A6
:100410000E947E058E010F5E1F4FCE010596B8012A
:100420000E947E05C701B801AE01475E5F4F0E9482
:1004300075000E94A904A096E6E00C94AA16A0E21A
:10044000B0E0E5E2F2E00C94821669837A838B8354
:100450009C832D833E834F835887CE010196BE0136
:10046000675F7F4F0E947E05CE010596BE016F5EDD
:100470007F4F0E947E059985923088F0898982306D
:10048000C8F0943019F4823051F404C0843029F457
:10049000923081F480E690E0C6C0923049F420E0CA
:1004A0009A858A89981321E02A87CE010996BBC0D4
:1004B000823049F420E09A858A89981321E02A8BBA
:1004C000CE014196B0C02D843E844F8458886D88FB
:1004D0007E888F88988CEE24FF248701AA24BB2471
:1004E000650140E050E060E070E0E0E0F0E0C10174
:1004F00081709070892BE9F0E60CF71C081D191D1E
:100500009A01AB012A0D3B1D4C1D5D1D80E090E062
:10051000A0E0B0E0E614F7040805190520F481E036
:1005200090E0A0E0B0E0BA01A901480F591F6A1F8E
:100530007B1FAA0CBB1CCC1CDD1C97FE08C081E0F5
:1005400090E0A0E0B0E0A82AB92ACA2ADB2A3196B6
:10055000E032F10549F0660C771C881C991C569412
:10056000479437942794C3CFFA85EA892B893C892D
:100570008B859C85280F391F2E5F3F4F17C0CA01FE
:1005800081709070892B61F016950795F794E79428
:1005900080E090E0A0E0B0E8E82AF92A0A2B1B2BC3
:1005A00076956795579547952F5F3F4F77FDE7CF36
:1005B0000CC0440F551F661F771F17FD4160EE0CDE
:1005C000FF1C001F111F21503040403090E05907A0
:1005D00090E0690790E4790760F32B8F3C8FDB0193
:1005E000CA018F779070A070B07080349105A1051A
:1005F000B10561F447FD0AC0E114F10401051105DC
:1006000029F0405C5F4F6F4F7F4F40781A8EFE1786
:1006100011F081E08A8F4D8F5E8F6F8F78A383E01A
:10062000898FCE0149960E94A904A096E2E10C941C
:100630009E16A8E1B0E0EFE1F3E00C948A1669831E
:100640007A838B839C832D833E834F835887B9E0C5
:10065000EB2EF12CEC0EFD1ECE010196B7010E948F
:100660007E058E010F5E1F4FCE010596B8010E94D8
:100670007E052985223008F47EC03989323010F495
:10068000B8017CC08A859A8989278A87243011F02D
:10069000223031F4231709F06EC060E670E06EC0BE
:1006A000343039F41D861E861F86188A1C861B86E8
:1006B00004C0323021F484E08987B7015FC02B8504
:1006C0003C858B899C89281B390B3C872B87ED84C3
:1006D000FE840F851889AD88BE88CF88D88CEA142F
:1006E000FB040C051D0540F4EE0CFF1C001F111F40
:1006F000215030403C872B8720E030E040E050E044
:1007000080E090E0A0E0B0E460E070E0EA14FB0478
:100710000C051D0540F0282B392B4A2B5B2BEA18C2
:10072000FB080C091D09B695A79597958795EE0CC2
:10073000FF1C001F111F6F5F7F4F6F31710531F775
:10074000DA01C9018F779070A070B0708034910584
:10075000A105B10561F427FD0AC0E114F10401050A
:10076000110529F0205C3F4F4F4F5F4F20782D87B8
:100770003E874F87588BBE01675F7F4FCB010E943A
:10078000A9046896EAE00C94A616A8E1B0E0EBECA8
:10079000F3E00C948E1669837A838B839C832D837C
:1007A0003E834F83588789E0E82EF12CEC0EFD1E26
:1007B000CE010196B7010E947E058E010F5E1F4F8C
:1007C000CE010596B8010E947E058985823040F0F1
:1007D0008989823028F0C701B8010E94F60501C05E
:1007E0008FEF6896E6E00C94AA16A8E1B0E0EBEF74
:1007F000F3E00C948E1669837A838B839C832D831C
:100800003E834F83588789E0E82EF12CEC0EFD1EC5
:10081000CE010196B7010E947E058E010F5E1F4F2B
:10082000CE010596B8010E947E058985823040F090
:100830008989823028F0C701B8010E94F60501C0FD
:100840008FEF6896E6E00C94AA16A8E1B0E0EBE220
:10085000F4E00C948E1669837A838B839C832D83BA
:100860003E834F83588789E0E82EF12CEC0EFD1E65
:10087000CE010196B7010E947E058E010F5E1F4FCB
:10088000CE010596B8010E947E058985823040F030
:100890008989823028F0C701B8010E94F60501C09D
:1008A00081E06896E6E00C94AA16ACE0B0E0EBE5D7
:1008B000F4E00C94921669837A838B839C83CE0137
:1008C0000196BE016B5F7F4F0E947E058D81823055
:1008D00061F1823050F1843021F48E81882351F10E
:1008E0002EC02F81388537FD20C06E812F31310514
:1008F0001CF06623F9F023C08EE190E0821B930B7D
:1009000029853A854B855C8504C056954795379572
:1009100027958A95D2F76623B1F05095409530958A
:1009200021953F4F4F4F5F4F0EC020E030E040E039
:1009300050E009C02FEF3FEF4FEF5FE704C020E02A
:1009400030E040E050E8B901CA012C96E2E00C9496
:10095000AE16DF92EF92FF920F931F93FC01E4809B
:10096000F58006811781D1808081823048F480E053
:1009700090E0A0E1B0E0E82AF92A0A2B1B2BA5C0E1
:10098000843009F49FC0823021F4EE24FF248701D3
:1009900005C0E114F1040105110519F4E0E0F0E0EF
:1009A00096C0628173819FEF623879070CF05BC05B
:1009B00022E83FEF261B370B2A3131052CF020E0CF
:1009C00030E040E050E02AC0B801A701022E04C088
:1009D00076956795579547950A94D2F781E090E010
:1009E000A0E0B0E004C0880F991FAA1FBB1F2A9582
:1009F000D2F70197A109B1098E219F21A023B1232C
:100A00000097A105B10521F081E090E0A0E0B0E001
:100A10009A01AB01282B392B4A2B5B2BDA01C90138
:100A20008F779070A070B07080349105A105B105EA
:100A300039F427FF09C0205C3F4F4F4F5F4F04C080
:100A4000215C3F4F4F4F5F4FE0E0F0E02030A0E0EF
:100A50003A07A0E04A07A0E45A0710F0E1E0F0E00E
:100A600079018A0127C06038710564F5FB01E158FE
:100A7000FF4FD801C7018F779070A070B07080349D
:100A80009105A105B10539F4E7FE0DC080E490E0C1
:100A9000A0E0B0E004C08FE390E0A0E0B0E0E80E9A
:100AA000F91E0A1F1B1F17FF05C016950795F7941F
:100AB000E794319687E016950795F794E7948A9521
:100AC000D1F705C0EE24FF248701EFEFF0E06E2F91
:100AD000679566276795902F9F77D794DD24D794E5
:100AE0008E2F8695492F462B582F5D29B701CA01B5
:100AF0001F910F91FF90EF90DF900895FC01DB01B3
:100B0000408151812281622F6F7770E0221F22275E
:100B1000221F9381892F880F822B282F30E0991F65
:100B20009927991F11969C93119721153105A9F5C5
:100B3000411551056105710511F482E037C082E865
:100B40009FEF13969C938E9312979A01AB0167E0E7
:100B5000220F331F441F551F6A95D1F783E08C93F2
:100B60000DC0220F331F441F551F12968D919C916B
:100B70001397019713969C938E931297203080E0E1
:100B8000380780E0480780E4580758F314962D93FF
:100B90003D934D935C93179708952F3F310579F45A
:100BA000411551056105710519F484E08C93089590
:100BB00064FF03C081E08C9312C01C9210C02F57B9
:100BC000304013963C932E93129783E08C9387E0EA
:100BD000440F551F661F771F8A95D1F770641496CE
:100BE0004D935D936D937C93179708951F93DC014C
:100BF000FB019C91923008F447C08081823008F458
:100C000043C0943051F411961C91843099F5818140
:100C1000682F70E0611B71093FC0843021F0923071
:100C200031F48230B9F18181882389F12DC0119688
:100C30001C9111978230F1F081811817D9F4129626
:100C40002D913C911397828193818217930794F0A1
:100C500028173907BCF014968D919D910D90BC9189
:100C6000A02D2481358146815781281739074A07ED
:100C70005B0718F4112341F00AC082179307A407F9
:100C8000B50740F4112319F061E070E005C06FEF83
:100C90007FEF02C060E070E0CB011F910895DF9309
:100CA000CF930F92CDB7DEB78983A3E5B0E0E3E53C
:100CB000F0E08081887F8C93A3E5B0E0E3E5F0E08D
:100CC000808183608C9389818823B1F4A3E5B0E0AF
:100CD000E3E5F0E08081877F8C93A3E5B0E0E3E576
:100CE000F0E080818F7B8C93A9E5B0E0E9E5F0E04E
:100CF000808181608C931CC089818130C9F4A3E517
:100D0000B0E0E3E5F0E0808188608C93A3E5B0E09B
:100D1000E3E5F0E080818F7B8C93A9E5B0E0E9E525
:100D2000F0E0808182608C93ECE5F0E08AEF8083D4
:100D30000F90CF91DF910895DF93CF9300D000D033
:100D40000F92CDB7DEB79A8389836B838B81282F6F
:100D500030E03D832C838C819D81009731F02C8184
:100D60003D812130310541F00DC089819A819093F8
:100D700079008093780006C089819A8190937B00E6
:100D800080937A000F900F900F900F900F90CF915B
:100D9000DF910895DF93CF93CDB7DEB780917C00CC
:100DA0008F5F80937C0080917C00823631F480E0FC
:100DB00060E00E943F0C10927C00CF91DF9108957B
:100DC000DF93CF93CDB7DEB780917D0090917E0009
:100DD000019690937E0080937D0080917D0090919C
:100DE0007E0021E0843F920741F480E060E00E94B1
:100DF0003F0C10927E0010927D00CF91DF910895FC
:100E00001F920F920FB60F9211242F933F934F937F
:100E10005F936F937F938F939F93AF93BF93EF9362
:100E2000FF93DF93CF93CDB7DEB7E0917A00F091D7
:100E30007B000995CF91DF91FF91EF91BF91AF9129
:100E40009F918F917F916F915F914F913F912F91E2
:100E50000F900FBE0F901F9018951F920F920FB614
:100E60000F9211242F933F934F935F936F937F9330
:100E70008F939F93AF93BF93EF93FF93DF93CF93A2
:100E8000CDB7DEB7E0917800F09179000995CF9168
:100E9000DF91FF91EF91BF91AF919F918F917F91E2
:100EA0006F915F914F913F912F910F900FBE0F90D7
:100EB0001F901895DF93CF93CDB7DEB7AFE5B0E0C5
:100EC000EFE5F0E0808180688C93CF91DF91089509
:100ED000DF93CF93CDB7DEB7AFE5B0E0EFE5F0E05D
:100EE00080818F778C93CF91DF910895DF93CF939B
:100EF00000D000D0CDB7DEB789836A838981282FDF
:100F000030E03C832B838B819C818130910509F4F7
:100F100054C02B813C812230310509F496C08B816D
:100F20009C81009709F0A6C08A81882379F4A5E501
:100F3000B0E0E5E5F0E080818E7F8C93A5E5B0E040
:100F4000E5E5F0E080818D7F8C9394C08A818130CB
:100F500079F4A5E5B0E0E5E5F0E0808181608C936F
:100F6000A5E5B0E0E5E5F0E080818D7F8C9382C05F
:100F70008A81823079F4A5E5B0E0E5E5F0E0808192
:100F80008E7F8C93A5E5B0E0E5E5F0E0808182609E
:100F90008C9370C08A81833009F06CC0A5E5B0E005
:100FA000E5E5F0E0808181608C93A5E5B0E0E5E5C2
:100FB000F0E0808182608C935DC08A81882379F41F
:100FC000A5E5B0E0E5E5F0E080818B7F8C93A5E5B9
:100FD000B0E0E5E5F0E08081877F8C934BC08A81AB
:100FE000813079F4A5E5B0E0E5E5F0E0808184604A
:100FF0008C93A5E5B0E0E5E5F0E08081877F8C93F8
:1010000039C08A81823079F4A5E5B0E0E5E5F0E009
:1010100080818B7F8C93A5E5B0E0E5E5F0E08081F1
:1010200088608C9327C08A81833021F5A5E5B0E0E4
:10103000E5E5F0E0808184608C93A5E5B0E0E5E52E
:10104000F0E0808188608C9315C08A81823041F401
:10105000A4E5B0E0E4E5F0E080818F7B8C930AC0EA
:101060008A81833039F4A4E5B0E0E4E5F0E08081E2
:1010700080648C930F900F900F900F90CF91DF9121
:101080000895DF93CF9300D00F92CDB7DEB7898359
:101090008981282F30E03B832A838A819B8181309C
:1010A000910589F02A813B8122303105A1F08A81A6
:1010B0009B810097B9F4ABE5B0E0EBE5F0E080810F
:1010C00080648C930FC0ABE5B0E0EBE5F0E080818D
:1010D00080688C9307C0ABE5B0E0EBE5F0E0808181
:1010E00080628C930F900F900F90CF91DF910895B5
:1010F000DF93CF9300D00F92CDB7DEB7898389817C
:10110000282F30E03B832A838A819B81813091059F
:1011100089F02A813B8122303105A1F08A819B81AF
:101120000097B9F4ABE5B0E0EBE5F0E080818F7BB0
:101130008C930FC0ABE5B0E0EBE5F0E080818F77FA
:101140008C9307C0ABE5B0E0EBE5F0E080818F7DEC
:101150008C930F900F900F90CF91DF910895DF93B4
:10116000CF9300D000D00F92CDB7DEB79A8389839A
:101170006B838B81282F30E03D832C838C819D8174
:101180008130910581F02C813D812230310591F033
:101190008C819D810097A1F489819A819093800030
:1011A00080937F000DC089819A8190938200809303
:1011B000810006C089819A81909384008093830086
:1011C0000F900F900F900F900F90CF91DF91089597
:1011D0001F920F920FB60F9211242F933F934F93AC
:1011E0005F936F937F938F939F93AF93BF93EF938F
:1011F000FF93DF93CF93CDB7DEB7E0917F00F091FF
:1012000080000995CF91DF91FF91EF91BF91AF9150
:101210009F918F917F916F915F914F913F912F910E
:101220000F900FBE0F901F9018951F920F920FB640
:101230000F9211242F933F934F935F936F937F935C
:101240008F939F93AF93BF93EF93FF93DF93CF93CE
:10125000CDB7DEB7E0918100F09182000995CF9182
:10126000DF91FF91EF91BF91AF919F918F917F910E
:101270006F915F914F913F912F910F900FBE0F9003
:101280001F9018951F920F920FB60F9211242F9353
:101290003F934F935F936F937F938F939F93AF93FE
:1012A000BF93EF93FF93DF93CF93CDB7DEB7E0917A
:1012B0008300F09184000995CF91DF91FF91EF9128
:1012C000BF91AF919F918F917F916F915F914F915E
:1012D0003F912F910F900FBE0F901F901895DF93A5
:1012E000CF93CDB7DEB72D970FB6F894DEBF0FBE04
:1012F000CDBF89836A834B838981843008F009C11B
:101300008A81883008F005C18B81823008F001C1E4
:101310008981282F30E03D872C878C859D85813001
:10132000910509F44FC02C853D85223031052CF400
:101330008C859D85009771F0ECC02C853D85223011
:10134000310509F477C08C859D858330910509F4BA
:10135000A9C0DFC08B81282F30E03B872A878A8590
:101360009B85009731F02A853B8521303105B1F00E
:10137000D0C0AAE3B0E0EAE3F0E08081482F8A81A0
:10138000282F30E081E090E0022E02C0880F991FE4
:101390000A94E2F7809584238C93BBC0AAE3B0E063
:1013A000EAE3F0E08081482F8A81282F30E081E055
:1013B00090E0022E02C0880F991F0A94E2F7842B56
:1013C0008C93A7C08B81282F30E0398728878885A8
:1013D0009985009731F02885398521303105B1F0A4
:1013E00098C0A7E3B0E0E7E3F0E08081482F8A816E
:1013F000282F30E081E090E0022E02C0880F991F74
:101400000A94E2F7809584238C9383C0A7E3B0E02D
:10141000E7E3F0E08081482F8A81282F30E081E0E7
:1014200090E0022E02C0880F991F0A94E2F7842BE5
:101430008C936FC08B81282F30E03F832E838E8169
:101440009F81009731F02E813F8121303105B1F02D
:1014500060C0A4E3B0E0E4E3F0E08081482F8A813B
:10146000282F30E081E090E0022E02C0880F991F03
:101470000A94E2F7809584238C934BC0A4E3B0E0F8
:10148000E4E3F0E08081482F8A81282F30E081E07A
:1014900090E0022E02C0880F991F0A94E2F7842B75
:1014A0008C9337C08B81282F30E03D832C838C8137
:1014B0009D81009731F02C813D8121303105B1F0C3
:1014C00028C0A1E3B0E0E1E3F0E08081482F8A8109
:1014D000282F30E081E090E0022E02C0880F991F93
:1014E0000A94E2F7809584238C9313C0A1E3B0E0C3
:1014F000E1E3F0E08081482F8A81282F30E081E00D
:1015000090E0022E02C0880F991F0A94E2F7842B04
:101510008C932D960FB6F894DEBF0FBECDBFCF9142
:10152000DF910895DF93CF93CDB7DEB72D970FB638
:10153000F894DEBF0FBECDBF89836A834B83898158
:10154000843008F009C18A81883008F005C18B8198
:10155000823008F001C18981282F30E03D872C8737
:101560008C859D858130910509F44FC02C853D8582
:10157000223031052CF48C859D85009771F0ECC0EC
:101580002C853D852230310509F477C08C859D85F9
:101590008330910509F4A9C0DFC08B81282F30E08A
:1015A0003B872A878A859B85009731F02A853B8572
:1015B00021303105B1F0D0C0ABE3B0E0EBE3F0E0B7
:1015C0008081482F8A81282F30E081E090E0022E30
:1015D00002C0880F991F0A94E2F7809584238C93A8
:1015E000BBC0ABE3B0E0EBE3F0E08081482F8A8141
:1015F000282F30E081E090E0022E02C0880F991F72
:101600000A94E2F7842B8C93A7C08B81282F30E0BB
:101610003987288788859985009731F0288539850D
:1016200021303105B1F098C0A8E3B0E0E8E3F0E084
:101630008081482F8A81282F30E081E090E0022EBF
:1016400002C0880F991F0A94E2F7809584238C9337
:1016500083C0A8E3B0E0E8E3F0E08081482F8A810E
:10166000282F30E081E090E0022E02C0880F991F01
:101670000A94E2F7842B8C936FC08B81282F30E083
:101680003F832E838E819F81009731F02E813F8191
:1016900021303105B1F060C0A5E3B0E0E5E3F0E052
:1016A0008081482F8A81282F30E081E090E0022E4F
:1016B00002C0880F991F0A94E2F7809584238C93C7
:1016C0004BC0A5E3B0E0E5E3F0E08081482F8A81DC
:1016D000282F30E081E090E0022E02C0880F991F91
:1016E0000A94E2F7842B8C9337C08B81282F30E04B
:1016F0003D832C838C819D81009731F02C813D812D
:1017000021303105B1F028C0A2E3B0E0E2E3F0E01F
:101710008081482F8A81282F30E081E090E0022EDE
:1017200002C0880F991F0A94E2F7809584238C9356
:1017300013C0A2E3B0E0E2E3F0E08081482F8A81A9
:10174000282F30E081E090E0022E02C0880F991F20
:101750000A94E2F7842B8C932D960FB6F894DEBF93
:101760000FBECDBFCF91DF910895DF93CF9300D00F
:1017700000D000D0CDB7DEB789836A8389818430F9
:1017800008F070C08A81883008F06CC08981282FE9
:1017900030E03D832C834C815D814130510549F11E
:1017A0008C819D818230910534F42C813D812115FD
:1017B000310561F057C04C815D814230510561F1C6
:1017C0008C819D8183309105D1F14CC0E9E3F0E03B
:1017D0008081282F30E08A81882F90E0A90102C003
:1017E000559547958A95E2F7CA01582F51705B834A
:1017F0003AC0E6E3F0E08081282F30E08A81882F2C
:1018000090E0A90102C0559547958A95E2F7CA0173
:10181000582F51705B8327C0E3E3F0E08081282FCD
:1018200030E08A81882F90E0A90102C05595479544
:101830008A95E2F7CA01582F51705B8314C0E0E328
:10184000F0E08081282F30E08A81882F90E0A90184
:1018500002C0559547958A95E2F7CA01582F5170F5
:101860005B8301C002C08B818E838E8126960FB66A
:10187000F894DEBF0FBECDBFCF91DF910895DF9307
:10188000CF9300D000D0CDB7DEB789836A8389813A
:10189000843008F072C08A81883008F06EC0898177
:1018A000282F30E03C832B838B819C8181309105F4
:1018B00049F12B813C81223031052CF48B819C81B4
:1018C000009761F05AC02B813C812230310571F1C3
:1018D0008B819C8183309105E9F14FC0ABE3B0E08F
:1018E000EBE3F0E08081482F8A81282F30E081E00F
:1018F00090E0022E02C0880F991F0A94E2F7842715
:101900008C933BC0A8E3B0E0E8E3F0E08081482F8F
:101910008A81282F30E081E090E0022E02C0880FFB
:10192000991F0A94E2F784278C9327C0A5E3B0E0BF
:10193000E5E3F0E08081482F8A81282F30E081E0C4
:1019400090E0022E02C0880F991F0A94E2F78427C4
:101950008C9313C0A2E3B0E0E2E3F0E08081482F73
:101960008A81282F30E081E090E0022E02C0880FAB
:10197000991F0A94E2F784278C930F900F900F9091
:101980000F90CF91DF910895DF93CF9300D000D0D7
:10199000CDB7DEB789836A838981843008F072C04D
:1019A0008A81883008F06EC08981282F30E03C831E
:1019B0002B838B819C818130910549F12B813C8166
:1019C000223031052CF48B819C81009761F05AC044
:1019D0002B813C812230310571F18B819C818330D8
:1019E0009105E9F14FC0ABE3B0E0EBE3F0E08081BB
:1019F000482F8A81282F30E081E090E0022E02C03B
:101A0000880F991F0A94E2F7842B8C933BC0A8E3BC
:101A1000B0E0E8E3F0E08081482F8A81282F30E0B1
:101A200081E090E0022E02C0880F991F0A94E2F72D
:101A3000842B8C9327C0A5E3B0E0E5E3F0E0808140
:101A4000482F8A81282F30E081E090E0022E02C0EA
:101A5000880F991F0A94E2F7842B8C9313C0A2E39A
:101A6000B0E0E2E3F0E08081482F8A81282F30E067
:101A700081E090E0022E02C0880F991F0A94E2F7DD
:101A8000842B8C930F900F900F900F90CF91DF913C
:101A90000895DF93CF93CDB7DEB72C970FB6F894A8
:101AA000DEBF0FBECDBF89836A838981843008F091
:101AB00083C08A81823008F07FC08981282F30E07E
:101AC0003C872B878B859C858130910571F12B8517
:101AD0003C85223031052CF48B859C85009769F07C
:101AE0006BC02B853C8522303105B9F18B859C85F7
:101AF0008330910509F449C05FC08A81282F30E006
:101B00003A87298789859A85009731F029853A8512
:101B10002130310529F050C0EAE3F0E010824CC0DA
:101B2000EAE3F0E08FEF808347C08A81282F30E01E
:101B300038872F838F819885009731F02F813885E2
:101B40002130310529F038C0E7E3F0E0108234C0DD
:101B5000E7E3F0E08FEF80832FC08A81282F30E009
:101B60003E832D838D819E81009731F02D813E81B2
:101B70002130310529F020C0E4E3F0E010821CC0E0
:101B8000E4E3F0E08FEF808317C08A81282F30E0F4
:101B90003C832B838B819C81009731F02B813C818E
:101BA0002130310529F008C0E1E3F0E0108204C0E3
:101BB000E1E3F0E08FEF80832C960FB6F894DEBF60
:101BC0000FBECDBFCF91DF910895DF93CF9300D0AB
:101BD00000D0CDB7DEB789836A838981843090F5E0
:101BE0008981282F30E03C832B838B819C8181303D
:101BF0009105D1F02B813C81223031052CF48B8171
:101C00009C81009761F01EC02B813C812230310500
:101C100081F08B819C818330910581F013C0EBE3CF
:101C2000F0E08A8180830EC0E8E3F0E08A8180835F
:101C300009C0E5E3F0E08A81808304C0E2E3F0E0DC
:101C40008A8180830F900F900F900F90CF91DF913A
:101C50000895DF93CF9300D000D00F92CDB7DEB7B9
:101C600089837B836A838981843008F03EC08A81BE
:101C70009B810097D1F18981282F30E03D832C830F
:101C80008C819D8181309105E1F02C813D81223054
:101C900031052CF48C819D81009761F026C02C8148
:101CA0003D8122303105A1F08C819D8183309105E9
:101CB000B1F01BC0E9E3F0E08081EA81FB81808321
:101CC00014C0E6E3F0E08081EA81FB8180830DC0EF
:101CD000E3E3F0E08081EA81FB81808306C0E0E3FA
:101CE000F0E08081EA81FB8180830F900F900F905C
:101CF0000F900F90CF91DF910895DF93CF9300D095
:101D00000F92CDB7DEB789838981843008F03EC059
:101D10008981282F30E03B832A838A819B8181300F
:101D20009105E9F02A813B81223031052CF48A812A
:101D30009B81009761F02AC02A813B8122303105C6
:101D4000B1F08A819B8183309105C9F01FC0ABE35C
:101D5000B0E0EBE3F0E0808180958C9317C0A8E3BE
:101D6000B0E0E8E3F0E0808180958C930FC0A5E3BC
:101D7000B0E0E5E3F0E0808180958C9307C0A2E3BA
:101D8000B0E0E2E3F0E0808180958C930F900F90BB
:101D90000F90CF91DF910895DF93CF9300D00F92F2
:101DA000CDB7DEB789838981843090F58981282F6A
:101DB00030E03B832A838A819B8181309105D1F079
:101DC0002A813B81223031052CF48A819B81009746
:101DD00061F01EC02A813B812230310581F08A8169
:101DE0009B818330910581F013C0EBE3F0E08FEF2E
:101DF00080830EC0E8E3F0E08FEF808309C0E5E365
:101E0000F0E08FEF808304C0E2E3F0E08FEF8083A7
:101E10000F900F900F90CF91DF910895DF93CF93A4
:101E2000CDB7DEB7A7E2B0E0E7E2F0E080818F77E0
:101E30008C93A7E2B0E0E7E2F0E0808180648C93CD
:101E4000A6E2B0E0E6E2F0E08081887F8C93A6E233
:101E5000B0E0E6E2F0E0808187608C93A6E2B0E03B
:101E6000E6E2F0E0808180688C93CF91DF91089565
:101E7000DF93CF9300D0CDB7DEB78983A7E2B0E080
:101E8000E7E2F0E08081807E8C93A7E2B0E0E7E2B9
:101E9000F0E090818981892B8C93A6E2B0E0E6E2A4
:101EA000F0E0808180648C93E6E2F0E08081A6E23D
:101EB000B0E0E6E2F0E0808180618C93E4E2F0E063
:101EC000808191810F900F90CF91DF9108950F93B2
:101ED0001F93DF93CF93CDB7DEB7CC54D0400FB66E
:101EE000F894DEBF0FBECDBF80E064E041E00E9409
:101EF0006F0980E065E041E00E946F0980E066E0E4
:101F000041E00E946F0980E067E041E00E946F09B4
:101F100081E061E041E00E946F0981E062E041E020
:101F20000E946F0981E063E041E00E946F09FE01B9
:101F3000E75BFF4F80E090E0ACE0B2E48083918308
:101F4000A283B3838E010B5B1F4FFE01E75BFF4F44
:101F5000608171818281938120E030E04AE755E41D
:101F60000E941F02DC01CB01F80180839183A283D0
:101F7000B383FE01EB5BFF4F6081718182819381AE
:101F800020E030E040E85FE30E942504882344F429
:101F9000FE01ED5BFF4F81E090E09183808364C0A0
:101FA000FE01EB5BFF4F608171818281938120E0B4
:101FB0003FEF4FE757E40E94C50318160CF043C0EB
:101FC000FE01E75BFF4F608171818281938120E098
:101FD00030E040E251E40E941F02DC01CB018E019F
:101FE0000D5B1F4FBC01CD010E944900DC01CB01FC
:101FF000F801918380831FC0FE01EF5BFF4F80E9F2
:1020000091E091838083FE01EF5BFF4F808191819E
:102010000197F1F7FE01EF5BFF4F91838083DE01B3
:10202000AD5BBF4FFE01ED5BFF4F8081918101975A
:1020300011969C938E93FE01ED5BFF4F8081918101
:102040000097D1F624C08E010D5B1F4FFE01EB5BA4
:10205000FF4F60817181828193810E944900DC0180
:10206000CB01F80191838083FE01ED5BFF4F8081FE
:102070009181FE01FF9691838083FE01FF9680810E
:1020800091810197F1F7FE01FF969183808381E0B2
:1020900061E040E00E94920A81E062E040E00E943C
:1020A000920A82E00E94DB130E940B1488E20E94D5
:1020B0007C1280E090E0A4E3B2E48BAF9CAFADAFC4
:1020C000BEAF6BAD7CAD8DAD9EAD2BEA3AEA4AEA70
:1020D00050E40E941F02DC01CB018FAB98AFA9AF87
:1020E000BAAF6FA978AD89AD9AAD20E030E040E895
:1020F0005FE30E94250488231CF481E08EAB91C02D
:102100006FA978AD89AD9AAD20E030E04FE753E498
:102110000E94C50318160CF07BC06BAD7CAD8DAD75
:102120009EAD20E030E04AE754E40E941903DC0150
:10213000CB018AAB9BABACABBDAB6AA97BA98CA92D
:102140009DA920E030E04AE755E40E941F02DC012F
:10215000CB018EA79FA7A8ABB9AB6EA57FA588A919
:1021600099A920E030E040E85FE30E94250488233D
:102170002CF481E090E09DA78CA73FC06EA57FA5C1
:1021800088A999A920E03FEF4FE757E40E94C503D3
:1021900018164CF56AA97BA98CA99DA920E030E00E
:1021A00040E251E40E941F02DC01CB01BC01CD01E1
:1021B0000E944900DC01CB019DA78CA70FC080E9DC
:1021C00091E09BA78AA78AA59BA50197F1F79BA7FA
:1021D0008AA78CA59DA501979DA78CA78CA59DA5D9
:1021E000009769F724C06EA57FA588A999A90E94C8
:1021F0004900DC01CB019DA78CA78CA59DA599A7C3
:1022000088A788A599A50197F1F799A788A70FC076
:102210006FA978AD89AD9AAD0E944900DC01CB0170
:102220008EAB8EA98FA38FA18A95F1F78FA38CE037
:102230000E947C1280E090E0A4E3B2E48BA39CA314
:10224000ADA3BEA36BA17CA18DA19EA12BEA3AEA0E
:102250004AEA50E40E941F02DC01CB018F8F98A351
:10226000A9A3BAA36F8D78A189A19AA120E030E03B
:1022700040E85FE30E94250488231CF481E08E8FF0
:1022800091C06F8D78A189A19AA120E030E04FE73D
:1022900053E40E94C50318160CF07BC06BA17CA10F
:1022A0008DA19EA120E030E04AE754E40E9419038A
:1022B000DC01CB018A8F9B8FAC8FBD8F6A8D7B8DAC
:1022C0008C8D9D8D20E030E04AE755E40E941F028E
:1022D000DC01CB018E8B9F8BA88FB98F6E897F8994
:1022E000888D998D20E030E040E85FE30E9425046E
:1022F00088232CF481E090E09D8B8C8B3FC06E890D
:102300007F89888D998D20E03FEF4FE757E40E9449
:10231000C50318164CF56A8D7B8D8C8D9D8D20E044
:1023200030E040E251E40E941F02DC01CB01BC011D
:10233000CD010E944900DC01CB019D8B8C8B0FC02D
:1023400080E991E09B8B8A8B8A899B890197F1F7C1
:102350009B8B8A8B8C899D8901979D8B8C8B8C891B
:102360009D89009769F724C06E897F89888D998D32
:102370000E944900DC01CB019D8B8C8B8C899D894F
:10238000998B888B888999890197F1F7998B888B2C
:102390000FC06F8D78A189A19AA10E944900DC012C
:1023A000CB018E8F8E8D8F878F858A95F1F78F87E2
:1023B00081E00E947C1280E090E0A0E0B0E48B8796
:1023C0009C87AD87BE876B857C858D859E8520E04B
:1023D00030E04AE755E40E941F02DC01CB018F8305
:1023E0009887A987BA876F81788589859A8520E043
:1023F00030E040E85FE30E94250488232CF481E06C
:1024000090E09E838D833FC06F81788589859A8512
:1024100020E03FEF4FE757E40E94C50318164CF544
:102420006B857C858D859E8520E030E040E251E41F
:102430000E941F02DC01CB01BC01CD010E944900BA
:10244000DC01CB019E838D830FC080E991E09C83EA
:102450008B838B819C810197F1F79C838B838D818A
:102460009E8101979E838D838D819E81009769F760
:1024700014C06F81788589859A850E944900DC01A6
:10248000CB019E838D838D819E819A8389838981EF
:102490009A810197F1F79A83898386E00E947C12E2
:1024A000C45BDF4F0FB6F894DEBF0FBECDBFCF9138
:1024B000DF911F910F910895DF93CF930F92CDB7C6
:1024C000DEB7898381E061E041E00E94920A81E009
:1024D00062E040E00E94920A898182958F700E949A
:1024E000DB130E940B1489810E94DB130E940B14E2
:1024F0000F90CF91DF910895DF93CF930F92CDB7D7
:10250000DEB7898381E061E040E00E94920A81E0C9
:1025100062E040E00E94920A898182958F700E9459
:10252000DB130E940B1489810E94DB130E940B14A1
:102530000F90CF91DF910895DF93CF9300D00F924A
:10254000CDB7DEB79B838A838A819B810097D9F0C0
:1025500019820EC08981282F30E08A819B81FC017D
:10256000E20FF31F80810E945C1289818F5F898353
:102570008981282F30E08A819B81FC01E20FF31FC3
:102580008081882339F70F900F900F90CF91DF91C2
:1025900008950F931F93DF93CF93CDB7DEB7659761
:1025A0000FB6F894DEBF0FBECDBF6A8B7B8B8C8BD2
:1025B0009D8B8A899B89AC89BD890097A105B1054E
:1025C00021F480E30E945C1251C0198230C08981DD
:1025D000082F112707FD10958A899B89AC89BD8931
:1025E0002AE030E040E050E0BC01CD010E946016DE
:1025F000DC01CB01282F205DCE010296FC01E00F0B
:10260000F11F208389818F5F89838A899B89AC89A7
:10261000BD892AE030E040E050E0BC01CD010E94DD
:102620006016DA01C9018A8B9B8BAC8BBD8B8A89C2
:102630009B89AC89BD890097A105B10541F68981C7
:102640008150898310C08981282F332727FD309539
:10265000CE010296FC01E20FF31F80810E945C1202
:10266000898181508983898188236CF765960FB6AB
:10267000F894DEBF0FBECDBFCF91DF911F910F91B8
:102680000895DF93CF93CDB7DEB727970FB6F894B1
:10269000DEBF0FBECDBF8B837D836C834E832F83C4
:1026A0001A828B81882F90E0880F991F880F991FBD
:1026B000880F991F898389818F77898389818064B5
:1026C000898389810E947C121A820EC08A81282FF8
:1026D00030E08C819D81FC01E20FF31F80810E941C
:1026E0005C128A818F5F8A838A81883078F38E8139
:1026F0006F810E94B7138B810E945C1227960FB6E0
:10270000F894DEBF0FBECDBFCF91DF910895DF9368
:10271000CF93CDB7DEB781E00E947C12CF91DF91DD
:102720000895DF93CF9300D00F92CDB7DEB78983A2
:1027300089818230B0F48981282F30E03B832A835D
:102740008A819B81009731F02A813B8121303105BC
:1027500029F007C088E10E947C1203C08CE10E942E
:102760007C120F900F900F90CF91DF910895DF931F
:10277000CF9300D00F92CDB7DEB78A836B838A8167
:10278000882F90E0002496958795079496958795D5
:102790000794982F802D982F8B81890F89838981A9
:1027A0008068898389810E947C120F900F900F901E
:1027B000CF91DF910895DF93CF930F92CDB7DEB71E
:1027C00089838981982F917080E064E0492F0E946D
:1027D000920A89818695982F917080E065E0492F53
:1027E0000E94920A898186958695982F917080E043
:1027F00066E0492F0E94920A898186958695869582
:10280000982F917080E067E0492F0E94920A0F9004
:10281000CF91DF910895DF93CF93CDB7DEB72E9799
:102820000FB6F894DEBF0FBECDBF81E063E041E09C
:102830000E94920A80E090E0A0E8BFE38B879C872B
:10284000AD87BE876B857C858D859E8520E030E0D9
:102850004AE755E40E941F02DC01CB018F83988771
:10286000A987BA876F81788589859A8520E030E0CD
:1028700040E85FE30E94250488232CF481E090E087
:102880009E838D833FC06F81788589859A8520E0FE
:102890003FEF4FE757E40E94C50318164CF56B85D0
:1028A0007C858D859E8520E030E040E251E40E94E9
:1028B0001F02DC01CB01BC01CD010E944900DC01FB
:1028C000CB019E838D830FC080E991E09C838B8335
:1028D0008B819C810197F1F79C838B838D819E81F5
:1028E00001979E838D838D819E81009769F714C027
:1028F0006F81788589859A850E944900DC01CB012A
:102900009E838D838D819E819A83898389819A811B
:102910000197F1F79A83898381E063E040E00E94A8
:10292000920A2E960FB6F894DEBF0FBECDBFCF91A0
:10293000DF910895DF93CF93CDB7DEB729970FB618
:10294000F894DEBF0FBECDBF84E08A8385E08B8321
:1029500086E08C8387E08D8382E08E8383E08F83A3
:1029600084E0888785E0898719823BC08981282F88
:1029700030E0CE010296FC01E20FF31F908181E06E
:10298000692F40E00E946F098981282F30E0CE0135
:102990000296FC01E20FF31F908181E0692F41E074
:1029A0000E94920A8981282F30E0CE010696FC0110
:1029B000E20FF31F908183E0692F41E00E946F09CD
:1029C0008981282F30E0CE010696FC01E20FF31F2B
:1029D000908183E0692F41E00E94920A89818F5F94
:1029E00089838981843010F229960FB6F894DEBF6E
:1029F0000FBECDBFCF91DF910895DF93CF93CDB7B9
:102A0000DEB72C970FB6F894DEBF0FBECDBF84E0C3
:102A10008C8385E08D8386E08E8387E08F8382E0E0
:102A2000888783E0898784E08A8785E08B878FEFBA
:102A300089831A825AC08A81282F30E0CE010896F5
:102A4000FC01E20FF31F908183E0692F40E00E94B8
:102A5000920A1B8236C08B81282F30E0CE0104966B
:102A6000FC01E20FF31F908181E0692F0E94B50BFA
:102A7000882321F58B81482F50E08A81282F30E070
:102A8000CA01880F991F880F991F820F931FFC019D
:102A9000E859FF4F808189838B81282F30E0CE0158
:102AA0000496FC01E20FF31F908181E0692F0E94E0
:102AB000B50B882389F389818C871DC08B818F5F3B
:102AC0008B838B81843038F28A81282F30E0CE01CD
:102AD0000896FC01E20FF31F908183E0692F41E02B
:102AE0000E94920A8A818F5F8A838A81843008F4E7
:102AF000A2CF89818C878C852C960FB6F894DEBF87
:102B00000FBECDBFCF91DF910895DF93CF93CDB7A7
:102B1000DEB782E060E040E00E94920A82E061E07D
:102B200041E00E94920A82E062E040E00E94920A44
:102B300082E063E041E00E94920ACF91DF91089524
:102B4000DF93CF93CDB7DEB782E060E040E00E9434
:102B5000920A82E061E041E00E94920A82E062E033
:102B600040E00E94920A82E063E040E00E94920A04
:102B7000CF91DF910895DF93CF93CDB7DEB782E099
:102B800060E040E00E94920A82E061E040E00E9442
:102B9000920A82E062E040E00E94920A82E063E0F2
:102BA00041E00E94920ACF91DF910895DF93CF9385
:102BB000CDB7DEB782E060E041E00E94920A82E099
:102BC00061E040E00E94920A82E062E041E00E94FF
:102BD000920A82E063E040E00E94920ACF91DF9186
:102BE0000895DF93CF93CDB7DEB782E060E041E098
:102BF0000E946F0982E061E041E00E946F0982E07B
:102C000062E041E00E946F0982E063E041E00E94DF
:102C10006F0983E064E041E00E946F0983E065E0B2
:102C200041E00E946F0983E064E041E00E94920A63
:102C300083E065E041E00E94920A80E060E040E0CD
:102C40000E946F0980E061E040E00E946F0980E02F
:102C500060E00E94B50B882341F480E061E00E94AF
:102C6000B50B882311F40E94851580E060E00E9476
:102C7000B50B882341F480E061E00E94B50B813000
:102C800011F40E94BB1580E060E00E94B50B81301A
:102C900041F480E061E00E94B50B882311F40E94AA
:102CA000A01580E060E00E94B50B813081F680E0E5
:102CB00061E00E94B50B813051F60E94D615C7CF56
:102CC000A1E21A2EAA1BBB1BFD010DC0AA1FBB1F30
:102CD000EE1FFF1FA217B307E407F50720F0A21BA2
:102CE000B30BE40BF50B661F771F881F991F1A940F
:102CF00069F760957095809590959B01AC01BD0139
:102D0000CF0108952F923F924F925F926F927F92E0
:102D10008F929F92AF92BF92CF92DF92EF92FF92EB
:102D20000F931F93CF93DF93CDB7DEB7CA1BDB0B97
:102D30000FB6F894DEBF0FBECDBF09942A8839883C
:102D400048885F846E847D848C849B84AA84B98443
:102D5000C884DF80EE80FD800C811B81AA81B9814F
:102D6000CE0FD11D0FB6F894DEBF0FBECDBFED0163
:062D70000895F894FFCF66
:102D760000000000000000000708092F0405062ACD
:082D86000102032D63303D2B17
:00000001FF
